{
  "contractName": "SCon",
  "abi": [
    {
      "constant": true,
      "inputs": [
        {
          "name": "",
          "type": "uint256"
        }
      ],
      "name": "scons",
      "outputs": [
        {
          "name": "id",
          "type": "uint256"
        },
        {
          "name": "title",
          "type": "string"
        },
        {
          "name": "owner",
          "type": "string"
        },
        {
          "name": "client",
          "type": "string"
        },
        {
          "name": "description",
          "type": "string"
        },
        {
          "name": "period",
          "type": "uint256"
        },
        {
          "name": "contractValue",
          "type": "uint256"
        },
        {
          "name": "status",
          "type": "string"
        }
      ],
      "payable": false,
      "stateMutability": "view",
      "type": "function"
    },
    {
      "constant": true,
      "inputs": [],
      "name": "sconCount",
      "outputs": [
        {
          "name": "",
          "type": "uint256"
        }
      ],
      "payable": false,
      "stateMutability": "view",
      "type": "function"
    },
    {
      "inputs": [],
      "payable": false,
      "stateMutability": "nonpayable",
      "type": "constructor"
    },
    {
      "anonymous": false,
      "inputs": [
        {
          "indexed": true,
          "name": "_candidateId",
          "type": "uint256"
        }
      ],
      "name": "votedEvent",
      "type": "event"
    },
    {
      "constant": false,
      "inputs": [
        {
          "name": "title",
          "type": "string"
        },
        {
          "name": "owner",
          "type": "string"
        },
        {
          "name": "client",
          "type": "string"
        },
        {
          "name": "period",
          "type": "uint256"
        },
        {
          "name": "value",
          "type": "uint256"
        }
      ],
      "name": "createStruct",
      "outputs": [],
      "payable": false,
      "stateMutability": "nonpayable",
      "type": "function"
    },
    {
      "constant": false,
      "inputs": [
        {
          "name": "addr",
          "type": "uint256"
        }
      ],
      "name": "remove",
      "outputs": [],
      "payable": false,
      "stateMutability": "nonpayable",
      "type": "function"
    }
  ],
  "bytecode": "0x60806040523480156200001157600080fd5b506200001c6200044f565b620000266200044f565b6040518060400160405280600181526020017f310000000000000000000000000000000000000000000000000000000000000081525082600001819052506040518060400160405280600e81526020017f536872696a616c204b6170686c6500000000000000000000000000000000000081525082602001819052506040518060400160405280600181526020017f31000000000000000000000000000000000000000000000000000000000000008152508260400181905250600182608001818152505060018260a00181815250506040518060400160405280600181526020017f310000000000000000000000000000000000000000000000000000000000000081525082606001819052506040518060400160405280600781526020017f70656e64696e67000000000000000000000000000000000000000000000000008152508260c001819052506040518060400160405280600181526020017f310000000000000000000000000000000000000000000000000000000000000081525081600001819052506040518060400160405280600e81526020017f536872696a616c204b6170686c6500000000000000000000000000000000000081525081604001819052506040518060400160405280600181526020017f31000000000000000000000000000000000000000000000000000000000000008152508160200181905250600181608001818152505060018160a00181815250506040518060400160405280600181526020017f310000000000000000000000000000000000000000000000000000000000000081525081606001819052506040518060400160405280600781526020017f70656e64696e67000000000000000000000000000000000000000000000000008152508160c00181905250620002cf82620002e860201b60201c565b620002e081620002e860201b60201c565b50506200053b565b60016000815480929190600101919050555060608160000151905060608260200151905060608360400151905060608460600151905060008560800151905060008660a00151905060608760c0015190506040518061010001604052806001548152602001888152602001878152602001868152602001858152602001848152602001838152602001828152506000806001548152602001908152602001600020600082015181600001556020820151816001019080519060200190620003b19291906200048c565b506040820151816002019080519060200190620003d09291906200048c565b506060820151816003019080519060200190620003ef9291906200048c565b5060808201518160040190805190602001906200040e9291906200048c565b5060a0820151816005015560c0820151816006015560e0820151816007019080519060200190620004419291906200048c565b509050505050505050505050565b6040518060e00160405280606081526020016060815260200160608152602001606081526020016000815260200160008152602001606081525090565b828054600181600116156101000203166002900490600052602060002090601f016020900481019282601f10620004cf57805160ff191683800117855562000500565b8280016001018555821562000500579182015b82811115620004ff578251825591602001919060010190620004e2565b5b5090506200050f919062000513565b5090565b6200053891905b80821115620005345760008160009055506001016200051a565b5090565b90565b610c05806200054b6000396000f3fe608060405234801561001057600080fd5b506004361061004c5760003560e01c806346f9b9d2146100515780634cc82215146102bd578063aaebf832146102eb578063bacb538f14610309575b600080fd5b61007d6004803603602081101561006757600080fd5b8101908080359060200190929190505050610506565b60405180898152602001806020018060200180602001806020018881526020018781526020018060200186810386528d818151815260200191508051906020019080838360005b838110156100df5780820151818401526020810190506100c4565b50505050905090810190601f16801561010c5780820380516001836020036101000a031916815260200191505b5086810385528c818151815260200191508051906020019080838360005b8381101561014557808201518184015260208101905061012a565b50505050905090810190601f1680156101725780820380516001836020036101000a031916815260200191505b5086810384528b818151815260200191508051906020019080838360005b838110156101ab578082015181840152602081019050610190565b50505050905090810190601f1680156101d85780820380516001836020036101000a031916815260200191505b5086810383528a818151815260200191508051906020019080838360005b838110156102115780820151818401526020810190506101f6565b50505050905090810190601f16801561023e5780820380516001836020036101000a031916815260200191505b50868103825287818151815260200191508051906020019080838360005b8381101561027757808201518184015260208101905061025c565b50505050905090810190601f1680156102a45780820380516001836020036101000a031916815260200191505b509d505050505050505050505050505060405180910390f35b6102e9600480360360208110156102d357600080fd5b8101908080359060200190929190505050610846565b005b6102f36108c6565b6040518082815260200191505060405180910390f35b610504600480360360a081101561031f57600080fd5b810190808035906020019064010000000081111561033c57600080fd5b82018360208201111561034e57600080fd5b8035906020019184600183028401116401000000008311171561037057600080fd5b91908080601f016020809104026020016040519081016040528093929190818152602001838380828437600081840152601f19601f820116905080830192505050505050509192919290803590602001906401000000008111156103d357600080fd5b8201836020820111156103e557600080fd5b8035906020019184600183028401116401000000008311171561040757600080fd5b91908080601f016020809104026020016040519081016040528093929190818152602001838380828437600081840152601f19601f8201169050808301925050505050505091929192908035906020019064010000000081111561046a57600080fd5b82018360208201111561047c57600080fd5b8035906020019184600183028401116401000000008311171561049e57600080fd5b91908080601f016020809104026020016040519081016040528093929190818152602001838380828437600081840152601f19601f82011690508083019250505050505050919291929080359060200190929190803590602001909291905050506108cc565b005b6000602052806000526040600020600091509050806000015490806001018054600181600116156101000203166002900480601f0160208091040260200160405190810160405280929190818152602001828054600181600116156101000203166002900480156105b85780601f1061058d576101008083540402835291602001916105b8565b820191906000526020600020905b81548152906001019060200180831161059b57829003601f168201915b505050505090806002018054600181600116156101000203166002900480601f0160208091040260200160405190810160405280929190818152602001828054600181600116156101000203166002900480156106565780601f1061062b57610100808354040283529160200191610656565b820191906000526020600020905b81548152906001019060200180831161063957829003601f168201915b505050505090806003018054600181600116156101000203166002900480601f0160208091040260200160405190810160405280929190818152602001828054600181600116156101000203166002900480156106f45780601f106106c9576101008083540402835291602001916106f4565b820191906000526020600020905b8154815290600101906020018083116106d757829003601f168201915b505050505090806004018054600181600116156101000203166002900480601f0160208091040260200160405190810160405280929190818152602001828054600181600116156101000203166002900480156107925780601f1061076757610100808354040283529160200191610792565b820191906000526020600020905b81548152906001019060200180831161077557829003601f168201915b505050505090806005015490806006015490806007018054600181600116156101000203166002900480601f01602080910402602001604051908101604052809291908181526020018280546001816001161561010002031660029004801561083c5780601f106108115761010080835404028352916020019161083c565b820191906000526020600020905b81548152906001019060200180831161081f57829003601f168201915b5050505050905088565b6000808281526020019081526020016000206000808201600090556001820160006108719190610aaf565b6002820160006108819190610aaf565b6003820160006108919190610aaf565b6004820160006108a19190610aaf565b600582016000905560068201600090556007820160006108c19190610aaf565b505050565b60015481565b6108d4610af7565b85816000018190525084816020018190525083816040018190525082816080018181525050818160a00181815250506040518060400160405280600781526020017f70656e64696e67000000000000000000000000000000000000000000000000008152508160c0018190525061094a81610952565b505050505050565b60016000815480929190600101919050555060608160000151905060608260200151905060608360400151905060608460600151905060008560800151905060008660a00151905060608760c0015190506040518061010001604052806001548152602001888152602001878152602001868152602001858152602001848152602001838152602001828152506000806001548152602001908152602001600020600082015181600001556020820151816001019080519060200190610a19929190610b34565b506040820151816002019080519060200190610a36929190610b34565b506060820151816003019080519060200190610a53929190610b34565b506080820151816004019080519060200190610a70929190610b34565b5060a0820151816005015560c0820151816006015560e0820151816007019080519060200190610aa1929190610b34565b509050505050505050505050565b50805460018160011615610100020316600290046000825580601f10610ad55750610af4565b601f016020900490600052602060002090810190610af39190610bb4565b5b50565b6040518060e00160405280606081526020016060815260200160608152602001606081526020016000815260200160008152602001606081525090565b828054600181600116156101000203166002900490600052602060002090601f016020900481019282601f10610b7557805160ff1916838001178555610ba3565b82800160010185558215610ba3579182015b82811115610ba2578251825591602001919060010190610b87565b5b509050610bb09190610bb4565b5090565b610bd691905b80821115610bd2576000816000905550600101610bba565b5090565b9056fea165627a7a72305820ed472508c5ca2aed8417881a143785df4f2d562d6fefbb6c45981d116449ac270029",
  "source": "pragma solidity ^0.5.0;\r\n//pragma experimental ABIEncoderV2;\r\n\r\ncontract SCon {\r\n    struct scon {\r\n        uint id;\r\n        string title;\r\n        string owner;\r\n        string client;\r\n        string description;\r\n        uint period;\r\n        uint contractValue;\r\n        string status;\r\n    }\r\n\r\n    struct inserting {\r\n        string title;\r\n        string owner;\r\n        string client;\r\n        string description;\r\n        uint period;\r\n        uint contractValue;\r\n        string status;\r\n    }\r\n\r\n    mapping(uint=>scon) public scons;\r\n\r\n    uint public sconCount;\r\n\r\n    event votedEvent (\r\n        uint indexed _candidateId\r\n    );\r\n\r\n    function createSCon (inserting memory contracts) private {\r\n        sconCount++;\r\n        string memory title = contracts.title;\r\n        string memory owner = contracts.owner;\r\n        string memory client = contracts.client;\r\n        string memory desc = contracts.description;\r\n        uint period = contracts.period;\r\n        uint value = contracts.contractValue;\r\n        string memory status = contracts.status;\r\n\r\n        scons[sconCount] = scon(sconCount, title, owner, client, desc, period, value, status);\r\n    }\r\n\r\n    function createStruct\r\n    (string memory title, string memory owner, string memory client, uint period, uint value) public {\r\n        inserting memory con;\r\n\r\n        con.title = title;\r\n        con.owner = owner;\r\n        con.client = client;\r\n        con.period = period;\r\n        con.contractValue = value;\r\n        //con.description = desc;\r\n        con.status = 'pending';\r\n\r\n        createSCon(con);\r\n    }\r\n\r\n    constructor() public {\r\n        inserting memory con;\r\n        inserting memory con2;\r\n\r\n        con.title = '1';\r\n        con.owner = 'Shrijal Kaphle';\r\n        con.client = '1';\r\n        con.period = 1;\r\n        con.contractValue = 1;\r\n        con.description = '1';\r\n        con.status = 'pending';\r\n\r\n        con2.title = '1';\r\n        con2.client = 'Shrijal Kaphle';\r\n        con2.owner = '1';\r\n        con2.period = 1;\r\n        con2.contractValue = 1;\r\n        con2.description = '1';\r\n        con2.status = 'pending';\r\n        \r\n        createSCon(con);\r\n        createSCon(con2);\r\n    }\r\n\r\n    function remove(uint addr) public {\r\n        delete(scons[addr]);\r\n    }\r\n}",
  "sourcePath": "D:/ContractManagement/contracts/SCon.sol",
  "compiler": {
    "name": "solc",
    "version": "0.5.8+commit.23d335f2.Emscripten.clang"
  },
  "schemaVersion": "3.0.10",
  "updatedAt": "2019-06-15T14:48:43.628Z",
  "devdoc": {
    "methods": {}
  },
  "userdoc": {
    "methods": {}
  }
}