{
  "contractName": "SCon",
  "abi": [
    {
      "constant": true,
      "inputs": [
        {
          "name": "",
          "type": "uint256"
        }
      ],
      "name": "scons",
      "outputs": [
        {
          "name": "id",
          "type": "uint256"
        },
        {
          "name": "title",
          "type": "bytes32"
        },
        {
          "name": "owner",
          "type": "bytes32"
        },
        {
          "name": "client",
          "type": "bytes32"
        },
        {
          "name": "description",
          "type": "bytes32"
        },
        {
          "name": "endDate",
          "type": "bytes32"
        },
        {
          "name": "contractValue",
          "type": "bytes32"
        },
        {
          "name": "status",
          "type": "bytes32"
        }
      ],
      "payable": false,
      "stateMutability": "view",
      "type": "function"
    },
    {
      "constant": true,
      "inputs": [
        {
          "name": "",
          "type": "uint256"
        }
      ],
      "name": "insert",
      "outputs": [
        {
          "name": "title",
          "type": "bytes32"
        },
        {
          "name": "owner",
          "type": "bytes32"
        },
        {
          "name": "client",
          "type": "bytes32"
        },
        {
          "name": "description",
          "type": "bytes32"
        },
        {
          "name": "endDate",
          "type": "bytes32"
        },
        {
          "name": "contractValue",
          "type": "bytes32"
        },
        {
          "name": "status",
          "type": "bytes32"
        }
      ],
      "payable": false,
      "stateMutability": "view",
      "type": "function"
    },
    {
      "constant": true,
      "inputs": [],
      "name": "sconCount",
      "outputs": [
        {
          "name": "",
          "type": "uint256"
        }
      ],
      "payable": false,
      "stateMutability": "view",
      "type": "function"
    },
    {
      "constant": true,
      "inputs": [],
      "name": "insertCount",
      "outputs": [
        {
          "name": "",
          "type": "uint256"
        }
      ],
      "payable": false,
      "stateMutability": "view",
      "type": "function"
    },
    {
      "inputs": [],
      "payable": false,
      "stateMutability": "nonpayable",
      "type": "constructor"
    },
    {
      "anonymous": false,
      "inputs": [
        {
          "indexed": true,
          "name": "_contractID",
          "type": "uint256"
        }
      ],
      "name": "contractEvent",
      "type": "event"
    },
    {
      "constant": false,
      "inputs": [
        {
          "name": "value",
          "type": "bytes32[]"
        }
      ],
      "name": "createStruct",
      "outputs": [],
      "payable": false,
      "stateMutability": "nonpayable",
      "type": "function"
    },
    {
      "constant": false,
      "inputs": [
        {
          "name": "addr",
          "type": "uint256"
        }
      ],
      "name": "remove",
      "outputs": [],
      "payable": false,
      "stateMutability": "nonpayable",
      "type": "function"
    },
    {
      "constant": false,
      "inputs": [
        {
          "name": "_contractID",
          "type": "uint256"
        }
      ],
      "name": "reject",
      "outputs": [],
      "payable": false,
      "stateMutability": "nonpayable",
      "type": "function"
    },
    {
      "constant": false,
      "inputs": [
        {
          "name": "_contractID",
          "type": "uint256"
        }
      ],
      "name": "accept",
      "outputs": [],
      "payable": false,
      "stateMutability": "nonpayable",
      "type": "function"
    }
  ],
  "bytecode": "0x608060405234801561001057600080fd5b50610019610253565b7f53616d706c6500000000000000000000000000000000000000000000000000008160000181815250507f41646d696e0000000000000000000000000000000000000000000000000000008160200181815250507f41446d696e3200000000000000000000000000000000000000000000000000008160400181815250507f323032302f312f310000000000000000000000000000000000000000000000008160800181815250507f37303030300000000000000000000000000000000000000000000000000000008160a00181815250507f546869732069732053616d706c6520436f6e74726163740000000000000000008160600181815250507f50656e64696e67000000000000000000000000000000000000000000000000008160c001818152505061014e8161015460201b60201c565b506102a5565b60026000815480929190600101919050555060008160000151905060008260200151905060008360400151905060008460600151905060008560800151905060008660a00151905060008760c001519050604051806101000160405280600254815260200188815260200187815260200186815260200185815260200184815260200183815260200182815250600160006002548152602001908152602001600020600082015181600001556020820151816001015560408201518160020155606082015181600301556080820151816004015560a0820151816005015560c0820151816006015560e082015181600701559050505050505050505050565b6040518060e00160405280600080191681526020016000801916815260200160008019168152602001600080191681526020016000801916815260200160008019168152602001600080191681525090565b610689806102b46000396000f3fe608060405234801561001057600080fd5b50600436106100885760003560e01c8063aaebf8321161005b578063aaebf832146101c8578063b8adaa11146101e6578063e6af785314610214578063ef790077146102cc57610088565b806319b05f491461008d57806346f9b9d2146100bb5780634cc822151461012e57806390b5561d1461015c575b600080fd5b6100b9600480360360208110156100a357600080fd5b81019080803590602001909291905050506102ea565b005b6100e7600480360360208110156100d157600080fd5b8101908080359060200190929190505050610328565b604051808981526020018881526020018781526020018681526020018581526020018481526020018381526020018281526020019850505050505050505060405180910390f35b61015a6004803603602081101561014457600080fd5b8101908080359060200190929190505050610370565b005b6101886004803603602081101561017257600080fd5b81019080803590602001909291905050506103c9565b6040518088815260200187815260200186815260200185815260200184815260200183815260200182815260200197505050505050505060405180910390f35b6101d061040b565b6040518082815260200191505060405180910390f35b610212600480360360208110156101fc57600080fd5b8101908080359060200190929190505050610411565b005b6102ca6004803603602081101561022a57600080fd5b810190808035906020019064010000000081111561024757600080fd5b82018360208201111561025957600080fd5b8035906020019184602083028401116401000000008311171561027b57600080fd5b919080806020026020016040519081016040528093929190818152602001838360200280828437600081840152601f19601f82011690508083019250505050505050919291929050505061044f565b005b6102d4610506565b6040518082815260200191505060405180910390f35b7f4f6e676f696e6700000000000000000000000000000000000000000000000000600160008381526020019081526020016000206007018190555050565b60016020528060005260406000206000915090508060000154908060010154908060020154908060030154908060040154908060050154908060060154908060070154905088565b600160008281526020019081526020016000206000808201600090556001820160009055600282016000905560038201600090556004820160009055600582016000905560068201600090556007820160009055505050565b60006020528060005260406000206000915090508060000154908060010154908060020154908060030154908060040154908060050154908060060154905087565b60025481565b7f52656a6563746564000000000000000000000000000000000000000000000000600160008381526020019081526020016000206007018190555050565b61045761060b565b8160008151811061046457fe5b60200260200101518160000181815250508160018151811061048257fe5b6020026020010151816020018181525050816002815181106104a057fe5b6020026020010151816040018181525050816004815181106104be57fe5b60200260200101518160800181815250507f50656e64696e67000000000000000000000000000000000000000000000000008160c00181815250506105028161050c565b5050565b60035481565b60026000815480929190600101919050555060008160000151905060008260200151905060008360400151905060008460600151905060008560800151905060008660a00151905060008760c001519050604051806101000160405280600254815260200188815260200187815260200186815260200185815260200184815260200183815260200182815250600160006002548152602001908152602001600020600082015181600001556020820151816001015560408201518160020155606082015181600301556080820151816004015560a0820151816005015560c0820151816006015560e082015181600701559050505050505050505050565b6040518060e0016040528060008019168152602001600080191681526020016000801916815260200160008019168152602001600080191681526020016000801916815260200160008019168152509056fea165627a7a72305820c44572ccc2eb919f2290477637ff6fe4ac72afb7f14715a627ad7572764c23ed0029",
  "source": "pragma solidity ^0.5.0;\r\n//pragma experimental ABIEncoderV2;\r\n\r\ncontract SCon {\r\n    struct scon {\r\n        uint id;\r\n        bytes32 title;\r\n        bytes32 owner;\r\n        bytes32 client;\r\n        bytes32 description;\r\n        bytes32 endDate;\r\n        bytes32 contractValue;\r\n        bytes32 status;\r\n    }\r\n\r\n    struct inserting {\r\n        bytes32 title;\r\n        bytes32 owner;\r\n        bytes32 client;\r\n        bytes32 description;\r\n        bytes32 endDate;\r\n        bytes32 contractValue;\r\n        bytes32 status;\r\n    }\r\n\r\n    mapping(uint=>inserting) public insert;\r\n\r\n    mapping(uint=>scon) public scons;\r\n\r\n    uint public sconCount;\r\n    uint public insertCount;\r\n\r\n    event contractEvent (\r\n        uint indexed _contractID\r\n    );\r\n\r\n    function createSCon (inserting memory contracts) private {\r\n        sconCount++;\r\n        bytes32 title = contracts.title;\r\n        bytes32 owner = contracts.owner;\r\n        bytes32 client = contracts.client;\r\n        bytes32 desc = contracts.description;\r\n        bytes32 endDate = contracts.endDate;\r\n        bytes32 value = contracts.contractValue;\r\n        bytes32 status = contracts.status;\r\n        //uint date = contracts.date;\r\n\r\n        scons[sconCount] = scon(sconCount, title, owner, client, desc, endDate, value, status);\r\n    }\r\n\r\n    function createStruct (bytes32[] memory value) public {\r\n        inserting memory con;\r\n        con.title = value[0];\r\n        con.owner = value[1];\r\n        con.client = value[2];\r\n        con.endDate = value[4];\r\n        // con.contractValue = value[5];\r\n        // con.description = value[3];\r\n        con.status = 'Pending';\r\n\r\n        createSCon(con);\r\n    }\r\n\r\n    constructor() public {\r\n        inserting memory con;\r\n\r\n        con.title = bytes32('Sample');\r\n        con.owner = bytes32('Admin');\r\n        con.client = bytes32('ADmin2');\r\n        con.endDate = bytes32('2020/1/1');\r\n        con.contractValue = bytes32('70000');\r\n        con.description = bytes32('This is Sample Contract');\r\n        con.status = bytes32('Pending');\r\n\r\n        createSCon(con);\r\n    }\r\n\r\n    function remove(uint addr) public {\r\n        delete(scons[addr]);\r\n    }\r\n\r\n    function reject(uint _contractID) public {\r\n        scons[_contractID].status = bytes32('Rejected');\r\n        //emit contractEvent(_contractID);\r\n    }\r\n\r\n    function accept(uint _contractID) public {\r\n        scons[_contractID].status = bytes32('Ongoing');\r\n        //emit contractEvent(_contractID);\r\n    }\r\n\r\n    // function checkStatus(uint today) public {\r\n    //     for(uint i = 1;i <= sconCount; i++) {\r\n    //         uint date = scons[i].endDate;\r\n    //         if (date > today) {\r\n    //             scons[i].status = 'Terminated';\r\n    //         }\r\n    //     }\r\n    // }\r\n}",
  "sourcePath": "D:/ContractManagement/contracts/SCon.sol",
  "compiler": {
    "name": "solc",
    "version": "0.5.8+commit.23d335f2.Emscripten.clang"
  },
  "schemaVersion": "3.0.10",
  "updatedAt": "2019-06-17T08:09:45.670Z",
  "devdoc": {
    "methods": {}
  },
  "userdoc": {
    "methods": {}
  }
}