{
  "contractName": "User",
  "abi": [
    {
      "constant": true,
      "inputs": [],
      "name": "userCount",
      "outputs": [
        {
          "name": "",
          "type": "uint256"
        }
      ],
      "payable": false,
      "stateMutability": "view",
      "type": "function"
    },
    {
      "constant": true,
      "inputs": [
        {
          "name": "",
          "type": "uint256"
        }
      ],
      "name": "users",
      "outputs": [
        {
          "name": "uid",
          "type": "uint256"
        },
        {
          "name": "name",
          "type": "string"
        },
        {
          "name": "wallet",
          "type": "string"
        },
        {
          "name": "role",
          "type": "string"
        }
      ],
      "payable": false,
      "stateMutability": "view",
      "type": "function"
    },
    {
      "inputs": [],
      "payable": false,
      "stateMutability": "nonpayable",
      "type": "constructor"
    },
    {
      "constant": false,
      "inputs": [
        {
          "name": "name",
          "type": "string"
        },
        {
          "name": "wallet",
          "type": "string"
        },
        {
          "name": "role",
          "type": "string"
        }
      ],
      "name": "createUser",
      "outputs": [],
      "payable": false,
      "stateMutability": "nonpayable",
      "type": "function"
    }
  ],
  "bytecode": "0x608060405234801561001057600080fd5b506100a46040518060400160405280600e81526020017f536872696a616c204b6170686c650000000000000000000000000000000000008152506040518060600160405280602a8152602001610a20602a91396040518060400160405280600581526020017f61646d696e00000000000000000000000000000000000000000000000000000081525061013c60201b60201c565b6101376040518060400160405280601181526020017f526f7368616e204368617061676861696e0000000000000000000000000000008152506040518060600160405280602a81526020016109f6602a91396040518060400160405280600481526020017f757365720000000000000000000000000000000000000000000000000000000081525061013c60201b60201c565b610293565b600160008154809291906001019190505550604051806080016040528060015481526020018481526020018381526020018281525060008060015481526020019081526020016000206000820151816000015560208201518160010190805190602001906101ab9291906101ee565b5060408201518160020190805190602001906101c89291906101ee565b5060608201518160030190805190602001906101e59291906101ee565b50905050505050565b828054600181600116156101000203166002900490600052602060002090601f016020900481019282601f1061022f57805160ff191683800117855561025d565b8280016001018555821561025d579182015b8281111561025c578251825591602001919060010190610241565b5b50905061026a919061026e565b5090565b61029091905b8082111561028c576000816000905550600101610274565b5090565b90565b610754806102a26000396000f3fe608060405234801561001057600080fd5b50600436106100415760003560e01c806307973ccf14610046578063365b98b21461006457806359ae069b146101ea575b600080fd5b61004e6103d3565b6040518082815260200191505060405180910390f35b6100906004803603602081101561007a57600080fd5b81019080803590602001909291905050506103d9565b60405180858152602001806020018060200180602001848103845287818151815260200191508051906020019080838360005b838110156100de5780820151818401526020810190506100c3565b50505050905090810190601f16801561010b5780820380516001836020036101000a031916815260200191505b50848103835286818151815260200191508051906020019080838360005b83811015610144578082015181840152602081019050610129565b50505050905090810190601f1680156101715780820380516001836020036101000a031916815260200191505b50848103825285818151815260200191508051906020019080838360005b838110156101aa57808201518184015260208101905061018f565b50505050905090810190601f1680156101d75780820380516001836020036101000a031916815260200191505b5097505050505050505060405180910390f35b6103d16004803603606081101561020057600080fd5b810190808035906020019064010000000081111561021d57600080fd5b82018360208201111561022f57600080fd5b8035906020019184600183028401116401000000008311171561025157600080fd5b91908080601f016020809104026020016040519081016040528093929190818152602001838380828437600081840152601f19601f820116905080830192505050505050509192919290803590602001906401000000008111156102b457600080fd5b8201836020820111156102c657600080fd5b803590602001918460018302840111640100000000831117156102e857600080fd5b91908080601f016020809104026020016040519081016040528093929190818152602001838380828437600081840152601f19601f8201169050808301925050505050505091929192908035906020019064010000000081111561034b57600080fd5b82018360208201111561035d57600080fd5b8035906020019184600183028401116401000000008311171561037f57600080fd5b91908080601f016020809104026020016040519081016040528093929190818152602001838380828437600081840152601f19601f8201169050808301925050505050505091929192905050506105d1565b005b60015481565b6000602052806000526040600020600091509050806000015490806001018054600181600116156101000203166002900480601f01602080910402602001604051908101604052809291908181526020018280546001816001161561010002031660029004801561048b5780601f106104605761010080835404028352916020019161048b565b820191906000526020600020905b81548152906001019060200180831161046e57829003601f168201915b505050505090806002018054600181600116156101000203166002900480601f0160208091040260200160405190810160405280929190818152602001828054600181600116156101000203166002900480156105295780601f106104fe57610100808354040283529160200191610529565b820191906000526020600020905b81548152906001019060200180831161050c57829003601f168201915b505050505090806003018054600181600116156101000203166002900480601f0160208091040260200160405190810160405280929190818152602001828054600181600116156101000203166002900480156105c75780601f1061059c576101008083540402835291602001916105c7565b820191906000526020600020905b8154815290600101906020018083116105aa57829003601f168201915b5050505050905084565b60016000815480929190600101919050555060405180608001604052806001548152602001848152602001838152602001828152506000806001548152602001908152602001600020600082015181600001556020820151816001019080519060200190610640929190610683565b50604082015181600201908051906020019061065d929190610683565b50606082015181600301908051906020019061067a929190610683565b50905050505050565b828054600181600116156101000203166002900490600052602060002090601f016020900481019282601f106106c457805160ff19168380011785556106f2565b828001600101855582156106f2579182015b828111156106f15782518255916020019190600101906106d6565b5b5090506106ff9190610703565b5090565b61072591905b80821115610721576000816000905550600101610709565b5090565b9056fea165627a7a7230582020d00da17b8720647880966f3511214eeb338c63267ea2621db3f61303e52f240029307830373336383438396664383932446535346364383635363638426644616431323245373331346237307845336231663733333741353930313563333439304133663033353864444146383435463642323236",
  "source": "pragma solidity ^0.5.0;\r\n\r\ncontract User {\r\n    struct userDetails {\r\n        uint uid;\r\n        string name;\r\n        string wallet;\r\n        string role;\r\n    }\r\n\r\n    mapping(uint => userDetails) public users;\r\n\r\n    uint public userCount;\r\n\r\n    constructor() public {\r\n        createUser('Shrijal Kaphle','0xE3b1f7337A59015c3490A3f0358dDAF845F6B226','admin');\r\n        createUser('Roshan Chapaghain','0x07368489fd892De54cd865668BfDad122E7314b7','user');\r\n    }\r\n\r\n    function createUser(string memory name,string memory wallet,string memory role) public {\r\n        userCount++;\r\n        users[userCount] = userDetails(userCount,name,wallet,role);\r\n    }\r\n}",
  "sourcePath": "D:/ContractManagement/contracts/User.sol",
  "compiler": {
    "name": "solc",
    "version": "0.5.8+commit.23d335f2.Emscripten.clang"
  },
  "schemaVersion": "3.0.10",
  "updatedAt": "2019-06-17T07:39:24.341Z",
  "devdoc": {
    "methods": {}
  },
  "userdoc": {
    "methods": {}
  }
}